{
  "contractName": "Election",
  "abi": [
    {
      "constant": true,
      "inputs": [
        {
          "name": "",
          "type": "uint256"
        }
      ],
      "name": "electionList",
      "outputs": [
        {
          "name": "keyIndex",
          "type": "uint256"
        },
        {
          "name": "name",
          "type": "string"
        }
      ],
      "payable": false,
      "stateMutability": "view",
      "type": "function",
      "signature": "0xdefb908f"
    }
  ],
  "bytecode": "0x60806040526000805534801561001457600080fd5b506101e3806100246000396000f3fe608060405234801561001057600080fd5b5060043610610048576000357c010000000000000000000000000000000000000000000000000000000090048063defb908f1461004d575b600080fd5b6100796004803603602081101561006357600080fd5b81019080803590602001909291905050506100fb565b6040518083815260200180602001828103825283818151815260200191508051906020019080838360005b838110156100bf5780820151818401526020810190506100a4565b50505050905090810190601f1680156100ec5780820380516001836020036101000a031916815260200191505b50935050505060405180910390f35b6001602052806000526040600020600091509050806000015490806001018054600181600116156101000203166002900480601f0160208091040260200160405190810160405280929190818152602001828054600181600116156101000203166002900480156101ad5780601f10610182576101008083540402835291602001916101ad565b820191906000526020600020905b81548152906001019060200180831161019057829003601f168201915b505050505090508256fea165627a7a723058208ea4c3737abe1b103ca5528c4521f35479d3ce6aca205416be1268ee760c97970029",
  "source": "pragma solidity ^0.5.0;\r\n\r\nimport \"../node_modules/openzeppelin-solidity/contracts/math/SafeMath.sol\";\r\n\r\ncontract Election {\r\n    using SafeMath for uint256;\r\n\r\n    uint256 private electionIdCounter = 0; // will also serve as the election's key\r\n    mapping (uint256 => Election) public electionList; // election id to election list\r\n    uint256[] private electionKeyList;\r\n    \r\n    struct Election {\r\n        uint256 keyIndex;\r\n        string name;\r\n    }\r\n\r\n    function addElection(string memory name) private returns(uint256) {\r\n        uint256 newKey = generateElectionId();\r\n        electionList[newKey].name = name;\r\n        electionList[newKey].keyIndex = electionKeyList.push(newKey) - 1;\r\n    }\r\n\r\n    function generateElectionId() private returns(uint256) {\r\n        return ++electionIdCounter;\r\n    }\r\n\r\n    \r\n}\r\n\r\n// pragma solidity ^0.5.0;\r\n\r\n// import \"../node_modules/openzeppelin-solidity/contracts/math/SafeMath\";\r\n\r\n// contract Election {\r\n//     using SafeMath for uint256;\r\n    \r\n//     uint256 private electionIdCounter = 0;\r\n//     uint256 private adminIdCounter = 0;\r\n//     uint256 private officialIdCounter = 0;\r\n\r\n//     struct Election {\r\n//         uint256 electionId;\r\n//         uint256 voterIdCounter = 0;\r\n//         mapping(uint256 => Voter) voterList; // voter id to Voter\r\n//         mapping(address => bool) isVoter;\r\n\r\n//         uint256 positionIdCounter = 0;\r\n//         string name;\r\n//         mapping(uint256 => Position) positionList; // position id to position \r\n//     }\r\n\r\n//     struct Position {\r\n//         uint256 positionId;\r\n//         uint256 candidateIdCounter = 0;\r\n//         uint256 maxNoOfCandidateToVote = 1;\r\n//         string name;\r\n//         mapping(uint256 => Candidate) candidateList;\r\n//         mapping (address => uint256) noOfCandidatesVotedBy; // address of the voter -> no of candidates voted in this position\r\n//     }\r\n\r\n//     struct Candidate {\r\n//         uint256 positionId; // the position where this candidate can be elected\r\n//         uint256 candidateId;\r\n//         address[] storage hisVoters; // voters who voted for this candidate\r\n//         mapping(address => bool) hasBeenVotedBy; // determines whether or not this candidate has been voted by a voter\r\n//         string name;\r\n//         uint256 votesReceived;\r\n//     }\r\n\r\n//     struct Admin {\r\n//         uint256 adminId;\r\n//         uint256 studentId;\r\n//         string name;\r\n//     }\r\n\r\n//     struct Official {\r\n//         uint256 officialId;\r\n//         uint256 studentId;\r\n//         string name;\r\n//     }\r\n\r\n//     struct Voter {\r\n//         uint256[] electionsInvolved; // elections in which this voter is involved\r\n//         uint256 voterId;\r\n//         uint256 studentId;\r\n//         string name;  \r\n//     }\r\n\r\n//     /* a list of elections that can be accessed via Id*/\r\n//     mapping (uint256 => Election) public electionList;\r\n\r\n//     mapping(uint256 => Official) public officialList; // official id to Official\r\n//     mapping(uint256 => Admin) public adminList; // admin id to Admin\r\n\r\n//     mapping (address => bool) public isAdmin;\r\n//     mapping (address => bool) public isOfficial;\r\n//     mapping (address => bool) public isVoter;\r\n\r\n//     Voter[] voterList;\r\n\r\n//     mapping (address => Voter) voterList; // all voters in all elections\r\n\r\n//     modifier onlyAdmin() {\r\n//         require(isAdmin[msg.sender], \"Only a voting admin can invoke this method\");\r\n//         _;\r\n//     }\r\n\r\n//     modifier onlyOfficial() {\r\n//         require(isOfficial[msg.sender], \"Only a voting official can invoke this method\");\r\n//         _;\r\n//     }\r\n\r\n//     modifier onlyVoterInElection(electionId){\r\n//         require(electionList[electionId].isVoter[msg.sender], \"The voter is not allowed to vote in this election\");\r\n//         _;\r\n//     }\r\n\r\n//     modifier canVoteAnotherCandidate(electionId, positionId){\r\n//         Election election = electionList[electionId];\r\n//         Position position = election[positionId];\r\n\r\n//         require(position.noOfCandidatesVotedBy[msg.sender] < position.maxNumOfCandidateToVote, \"The voter has exceeded the number of candidates allowed to be voted in this position: \" + positionId);\r\n//     }\r\n\r\n//     modifier hasNotVotedThisCandidate(uint256 electionId, uint256 positionId, uint256 candidateId) {\r\n//         Election election = electionList[electionId];\r\n//         Position position = election.positionList[positionId];\r\n//         Candidate candidate = position.candidateList[candidateId];\r\n        \r\n//         require(electionList[candidate.hasBeenVotedBy[msg.sender], \"The voter already cast a vote for this candidate: \" + candidateId);\r\n//         _;\r\n//     }\r\n\r\n//     constructor() public {\r\n//         isAdmin[msg.sender] = true;\r\n//         isOfficial[msg.sender] = true;\r\n//     }\r\n\r\n//     function addAdmin(address newAdmin, uint256 studentId, string memory name) public onlyAdmin {\r\n//         isAdmin[newAdmin] = true;\r\n//         Admin storage admin = Admin({adminId: adminIdCounter, studentId: studentId, name: name});\r\n//         adminList[adminIdCounter] = admin;\r\n\r\n//         officialAdminCounter = adminIdCounter.add(1);\r\n        \r\n//         addOfficial(newAdmin, studentId, name); // an admin is an official also\r\n//     }\r\n\r\n//     function addOfficial(address newOfficial, uint256 studentId, string memory name) public onlyAdmin {\r\n//         isOfficial[newOfficial] = true;\r\n//         Official storage official = Official({officialId: officialIdCounter, studentId: studentId, name: name});\r\n\r\n//         officialList[officialIdCounter] = official;\r\n\r\n//         officialIdCounter = officialIdCounter.add(1);\r\n//     }\r\n\r\n//     function addVoter(address newVoter, uint256 electionId, uint256 studentId, string memory name) public onlyOfficial {\r\n//         Voter storage voter = Voter({voterId: voterIdCounter, studentId: studentId, name: name});\r\n//         voter.electionsInvolved.push(electionId);\r\n//         voterList[voterIdCounter] = voter;\r\n//         isVoter[msg.sender] = true;\r\n        \r\n//         Election election = electionList[electionId];\r\n//         election.voterList[voterIdCounter] = voter;\r\n//         election.isVoter[msg.sender] = true;\r\n\r\n//         voterIdCounter = voterIdCounter.add(1);\r\n//     }\r\n\r\n//     function removeAdmin(address toRemove) public onlyAdmin {\r\n//         isAdmin[toRemove] = false;\r\n//     }\r\n\r\n//     function removeOfficial(address toRemove) public onlyAdmin {\r\n//         isOfficial[toRemove] = false;\r\n//     }\r\n\r\n//     function removeVoter(address toRemove) public onlyOfficial {\r\n//         isVoter[toRemove] = false;\r\n//     }\r\n\r\n\r\n//     function vote(uint256 electionId, uint256 positionId, uint256 candidateId) public onlyVoterInElection(electionId) canVoteAnotherCandidate(election, positionId) hasNotVotedThisCandidate(electionId, positionId, candidateId) {\r\n//         Election election = electionList[electionId];\r\n//         Position position = election.positionList[positionId];\r\n//         Candidate candidate = position.candidateList[candidateId];\r\n\r\n//         position.noOfCandidatesVotedBy[msg.sender].add(1);\r\n//         candidate.hasBeenVotedBy[msg.sender] = true;\r\n//         candidate.votesReceived.add(1);\r\n//     } \r\n\r\n    \r\n\r\n// }",
  "sourcePath": "E:/ethereum/votechain/contracts/Election.sol",
  "compiler": {
    "name": "solc",
    "version": "0.5.3+commit.10d17f24.Emscripten.clang"
  },
  "schemaVersion": "3.0.1",
  "updatedAt": "2019-02-07T03:10:31.195Z",
  "devdoc": {
    "methods": {}
  },
  "userdoc": {
    "methods": {}
  }
}