{
  "contractName": "Votechain",
  "abi": [
    {
      "constant": true,
      "inputs": [
        {
          "name": "",
          "type": "address"
        }
      ],
      "name": "voterList",
      "outputs": [
        {
          "name": "keyIndex",
          "type": "uint256"
        },
        {
          "name": "name",
          "type": "string"
        },
        {
          "name": "studentNo",
          "type": "string"
        },
        {
          "name": "electionKey",
          "type": "uint256"
        }
      ],
      "payable": false,
      "stateMutability": "view",
      "type": "function",
      "signature": "0x03b4caed"
    },
    {
      "constant": true,
      "inputs": [
        {
          "name": "",
          "type": "uint256"
        }
      ],
      "name": "candidateKeyList",
      "outputs": [
        {
          "name": "",
          "type": "uint256"
        }
      ],
      "payable": false,
      "stateMutability": "view",
      "type": "function",
      "signature": "0x05cdd372"
    },
    {
      "constant": true,
      "inputs": [
        {
          "name": "",
          "type": "address"
        }
      ],
      "name": "adminList",
      "outputs": [
        {
          "name": "keyIndex",
          "type": "uint256"
        },
        {
          "name": "name",
          "type": "string"
        }
      ],
      "payable": false,
      "stateMutability": "view",
      "type": "function",
      "signature": "0x27304dfd"
    },
    {
      "constant": true,
      "inputs": [
        {
          "name": "",
          "type": "uint256"
        }
      ],
      "name": "abstainKeyList",
      "outputs": [
        {
          "name": "",
          "type": "uint256"
        }
      ],
      "payable": false,
      "stateMutability": "view",
      "type": "function",
      "signature": "0x3c846e91"
    },
    {
      "constant": true,
      "inputs": [
        {
          "name": "",
          "type": "uint256"
        }
      ],
      "name": "electionKeyList",
      "outputs": [
        {
          "name": "",
          "type": "uint256"
        }
      ],
      "payable": false,
      "stateMutability": "view",
      "type": "function",
      "signature": "0x4407c3f1"
    },
    {
      "constant": true,
      "inputs": [
        {
          "name": "",
          "type": "uint256"
        }
      ],
      "name": "positionKeyList",
      "outputs": [
        {
          "name": "",
          "type": "uint256"
        }
      ],
      "payable": false,
      "stateMutability": "view",
      "type": "function",
      "signature": "0x6de7d93d"
    },
    {
      "constant": true,
      "inputs": [
        {
          "name": "",
          "type": "uint256"
        }
      ],
      "name": "positionList",
      "outputs": [
        {
          "name": "keyIndex",
          "type": "uint256"
        },
        {
          "name": "name",
          "type": "string"
        },
        {
          "name": "maxNoOfCandidatesThatCanBeSelected",
          "type": "uint256"
        },
        {
          "name": "electionKey",
          "type": "uint256"
        },
        {
          "name": "abstainKey",
          "type": "uint256"
        }
      ],
      "payable": false,
      "stateMutability": "view",
      "type": "function",
      "signature": "0x7955f60f"
    },
    {
      "constant": true,
      "inputs": [
        {
          "name": "",
          "type": "uint256"
        }
      ],
      "name": "voteList",
      "outputs": [
        {
          "name": "keyIndex",
          "type": "uint256"
        },
        {
          "name": "electionKey",
          "type": "uint256"
        },
        {
          "name": "positionKey",
          "type": "uint256"
        },
        {
          "name": "candidateKey",
          "type": "uint256"
        },
        {
          "name": "voteKey",
          "type": "uint256"
        },
        {
          "name": "voterKey",
          "type": "address"
        }
      ],
      "payable": false,
      "stateMutability": "view",
      "type": "function",
      "signature": "0xa3989703"
    },
    {
      "constant": true,
      "inputs": [
        {
          "name": "",
          "type": "uint256"
        }
      ],
      "name": "adminKeyList",
      "outputs": [
        {
          "name": "",
          "type": "address"
        }
      ],
      "payable": false,
      "stateMutability": "view",
      "type": "function",
      "signature": "0xb130d833"
    },
    {
      "constant": true,
      "inputs": [
        {
          "name": "",
          "type": "uint256"
        }
      ],
      "name": "candidateList",
      "outputs": [
        {
          "name": "keyIndex",
          "type": "uint256"
        },
        {
          "name": "name",
          "type": "string"
        },
        {
          "name": "positionKey",
          "type": "uint256"
        }
      ],
      "payable": false,
      "stateMutability": "view",
      "type": "function",
      "signature": "0xb13c744b"
    },
    {
      "constant": true,
      "inputs": [
        {
          "name": "",
          "type": "uint256"
        }
      ],
      "name": "voterKeyList",
      "outputs": [
        {
          "name": "",
          "type": "address"
        }
      ],
      "payable": false,
      "stateMutability": "view",
      "type": "function",
      "signature": "0xb564a475"
    },
    {
      "constant": true,
      "inputs": [
        {
          "name": "",
          "type": "uint256"
        }
      ],
      "name": "voteKeyList",
      "outputs": [
        {
          "name": "",
          "type": "uint256"
        }
      ],
      "payable": false,
      "stateMutability": "view",
      "type": "function",
      "signature": "0xb7f822a5"
    },
    {
      "constant": true,
      "inputs": [
        {
          "name": "",
          "type": "uint256"
        }
      ],
      "name": "officialKeyList",
      "outputs": [
        {
          "name": "",
          "type": "address"
        }
      ],
      "payable": false,
      "stateMutability": "view",
      "type": "function",
      "signature": "0xca397f11"
    },
    {
      "constant": true,
      "inputs": [
        {
          "name": "",
          "type": "address"
        }
      ],
      "name": "officialList",
      "outputs": [
        {
          "name": "keyIndex",
          "type": "uint256"
        },
        {
          "name": "name",
          "type": "string"
        }
      ],
      "payable": false,
      "stateMutability": "view",
      "type": "function",
      "signature": "0xd0c9c104"
    },
    {
      "constant": true,
      "inputs": [
        {
          "name": "",
          "type": "uint256"
        }
      ],
      "name": "electionList",
      "outputs": [
        {
          "name": "keyIndex",
          "type": "uint256"
        },
        {
          "name": "name",
          "type": "string"
        }
      ],
      "payable": false,
      "stateMutability": "view",
      "type": "function",
      "signature": "0xdefb908f"
    },
    {
      "constant": false,
      "inputs": [
        {
          "name": "name",
          "type": "string"
        }
      ],
      "name": "addElection",
      "outputs": [
        {
          "name": "",
          "type": "uint256"
        }
      ],
      "payable": false,
      "stateMutability": "nonpayable",
      "type": "function",
      "signature": "0x358b9d97"
    },
    {
      "constant": false,
      "inputs": [
        {
          "name": "electionKey",
          "type": "uint256"
        },
        {
          "name": "name",
          "type": "string"
        },
        {
          "name": "maxNoOfCandidatesThatCanBeSelected",
          "type": "uint256"
        }
      ],
      "name": "addPosition",
      "outputs": [
        {
          "name": "",
          "type": "uint256"
        }
      ],
      "payable": false,
      "stateMutability": "nonpayable",
      "type": "function",
      "signature": "0x430f707d"
    },
    {
      "constant": false,
      "inputs": [
        {
          "name": "positionKey",
          "type": "uint256"
        },
        {
          "name": "name",
          "type": "string"
        }
      ],
      "name": "addCandidate",
      "outputs": [
        {
          "name": "",
          "type": "uint256"
        }
      ],
      "payable": false,
      "stateMutability": "nonpayable",
      "type": "function",
      "signature": "0x1750a3d0"
    },
    {
      "constant": false,
      "inputs": [
        {
          "name": "voterKey",
          "type": "address"
        },
        {
          "name": "electionKey",
          "type": "uint256"
        },
        {
          "name": "studentNo",
          "type": "string"
        },
        {
          "name": "name",
          "type": "string"
        }
      ],
      "name": "addVoter",
      "outputs": [
        {
          "name": "",
          "type": "address"
        }
      ],
      "payable": false,
      "stateMutability": "nonpayable",
      "type": "function",
      "signature": "0x6d9b077c"
    },
    {
      "constant": false,
      "inputs": [
        {
          "name": "positionKey",
          "type": "uint256"
        }
      ],
      "name": "addAbstain",
      "outputs": [
        {
          "name": "",
          "type": "uint256"
        }
      ],
      "payable": false,
      "stateMutability": "nonpayable",
      "type": "function",
      "signature": "0x7b467073"
    },
    {
      "constant": true,
      "inputs": [
        {
          "name": "electionKey",
          "type": "uint256"
        }
      ],
      "name": "isElection",
      "outputs": [
        {
          "name": "",
          "type": "bool"
        }
      ],
      "payable": false,
      "stateMutability": "view",
      "type": "function",
      "signature": "0x9b6e5650"
    },
    {
      "constant": true,
      "inputs": [
        {
          "name": "positionKey",
          "type": "uint256"
        }
      ],
      "name": "isPosition",
      "outputs": [
        {
          "name": "",
          "type": "bool"
        }
      ],
      "payable": false,
      "stateMutability": "view",
      "type": "function",
      "signature": "0xba2a7010"
    },
    {
      "constant": true,
      "inputs": [
        {
          "name": "candidateKey",
          "type": "uint256"
        }
      ],
      "name": "isCandidate",
      "outputs": [
        {
          "name": "",
          "type": "bool"
        }
      ],
      "payable": false,
      "stateMutability": "view",
      "type": "function",
      "signature": "0xe55103fb"
    },
    {
      "constant": true,
      "inputs": [
        {
          "name": "voterKey",
          "type": "address"
        }
      ],
      "name": "isVoter",
      "outputs": [
        {
          "name": "",
          "type": "bool"
        }
      ],
      "payable": false,
      "stateMutability": "view",
      "type": "function",
      "signature": "0xa7771ee3"
    },
    {
      "constant": true,
      "inputs": [
        {
          "name": "voteKey",
          "type": "uint256"
        }
      ],
      "name": "isVote",
      "outputs": [
        {
          "name": "",
          "type": "bool"
        }
      ],
      "payable": false,
      "stateMutability": "view",
      "type": "function",
      "signature": "0xc4bed2ac"
    },
    {
      "constant": true,
      "inputs": [
        {
          "name": "abstainKey",
          "type": "uint256"
        }
      ],
      "name": "isAbstain",
      "outputs": [
        {
          "name": "",
          "type": "bool"
        }
      ],
      "payable": false,
      "stateMutability": "view",
      "type": "function",
      "signature": "0x847e236c"
    }
  ],
  "bytecode": "0x608060405260008055600060035560006006556000600b556000600e5534801561002857600080fd5b506120c2806100386000396000f3fe608060405234801561001057600080fd5b50600436106101cb576000357c0100000000000000000000000000000000000000000000000000000000900480639b6e56501161010b578063b7f822a5116100b4578063ca397f111161008e578063ca397f1114610df7578063d0c9c10414610e65578063defb908f14610f29578063e55103fb14610fd7576101cb565b8063b7f822a514610d29578063ba2a701014610d6b578063c4bed2ac14610db1576101cb565b8063b130d833116100e5578063b130d83314610b98578063b13c744b14610c06578063b564a47514610cbb576101cb565b80639b6e565014610a65578063a398970314610aab578063a7771ee314610b3c576101cb565b8063430f707d116101785780636de7d93d116101525780636de7d93d146108d85780637955f60f1461091a5780637b467073146109dd578063847e236c14610a1f576101cb565b8063430f707d146105f75780634407c3f1146106da5780636d9b077c1461071c576101cb565b806327304dfd116101a957806327304dfd14610422578063358b9d97146104e65780633c846e91146105b5576101cb565b806303b4caed146101d057806305cdd372146103075780631750a3d014610349575b600080fd5b610212600480360360208110156101e657600080fd5b81019080803573ffffffffffffffffffffffffffffffffffffffff16906020019092919050505061101d565b604051808581526020018060200180602001848152602001838103835286818151815260200191508051906020019080838360005b83811015610262578082015181840152602081019050610247565b50505050905090810190601f16801561028f5780820380516001836020036101000a031916815260200191505b50838103825285818151815260200191508051906020019080838360005b838110156102c85780820151818401526020810190506102ad565b50505050905090810190601f1680156102f55780820380516001836020036101000a031916815260200191505b50965050505050505060405180910390f35b6103336004803603602081101561031d57600080fd5b810190808035906020019092919050505061117d565b6040518082815260200191505060405180910390f35b61040c6004803603604081101561035f57600080fd5b81019080803590602001909291908035906020019064010000000081111561038657600080fd5b82018360208201111561039857600080fd5b803590602001918460018302840111640100000000831117156103ba57600080fd5b91908080601f016020809104026020016040519081016040528093929190818152602001838380828437600081840152601f19601f8201169050808301925050505050505091929192905050506111a0565b6040518082815260200191505060405180910390f35b6104646004803603602081101561043857600080fd5b81019080803573ffffffffffffffffffffffffffffffffffffffff1690602001909291905050506112b2565b6040518083815260200180602001828103825283818151815260200191508051906020019080838360005b838110156104aa57808201518184015260208101905061048f565b50505050905090810190601f1680156104d75780820380516001836020036101000a031916815260200191505b50935050505060405180910390f35b61059f600480360360208110156104fc57600080fd5b810190808035906020019064010000000081111561051957600080fd5b82018360208201111561052b57600080fd5b8035906020019184600183028401116401000000008311171561054d57600080fd5b91908080601f016020809104026020016040519081016040528093929190818152602001838380828437600081840152601f19601f82011690508083019250505050505050919291929050505061136e565b6040518082815260200191505060405180910390f35b6105e1600480360360208110156105cb57600080fd5b81019080803590602001909291905050506113f7565b6040518082815260200191505060405180910390f35b6106c46004803603606081101561060d57600080fd5b81019080803590602001909291908035906020019064010000000081111561063457600080fd5b82018360208201111561064657600080fd5b8035906020019184600183028401116401000000008311171561066857600080fd5b91908080601f016020809104026020016040519081016040528093929190818152602001838380828437600081840152601f19601f8201169050808301925050505050505091929192908035906020019092919050505061141a565b6040518082815260200191505060405180910390f35b610706600480360360208110156106f057600080fd5b8101908080359060200190929190505050611547565b6040518082815260200191505060405180910390f35b6108966004803603608081101561073257600080fd5b81019080803573ffffffffffffffffffffffffffffffffffffffff169060200190929190803590602001909291908035906020019064010000000081111561077957600080fd5b82018360208201111561078b57600080fd5b803590602001918460018302840111640100000000831117156107ad57600080fd5b91908080601f016020809104026020016040519081016040528093929190818152602001838380828437600081840152601f19601f8201169050808301925050505050505091929192908035906020019064010000000081111561081057600080fd5b82018360208201111561082257600080fd5b8035906020019184600183028401116401000000008311171561084457600080fd5b91908080601f016020809104026020016040519081016040528093929190818152602001838380828437600081840152601f19601f82011690508083019250505050505050919291929050505061156a565b604051808273ffffffffffffffffffffffffffffffffffffffff1673ffffffffffffffffffffffffffffffffffffffff16815260200191505060405180910390f35b610904600480360360208110156108ee57600080fd5b81019080803590602001909291905050506117ec565b6040518082815260200191505060405180910390f35b6109466004803603602081101561093057600080fd5b810190808035906020019092919050505061180f565b6040518086815260200180602001858152602001848152602001838152602001828103825286818151815260200191508051906020019080838360005b8381101561099e578082015181840152602081019050610983565b50505050905090810190601f1680156109cb5780820380516001836020036101000a031916815260200191505b50965050505050505060405180910390f35b610a09600480360360208110156109f357600080fd5b81019080803590602001909291905050506118dd565b6040518082815260200191505060405180910390f35b610a4b60048036036020811015610a3557600080fd5b8101908080359060200190929190505050611971565b604051808215151515815260200191505060405180910390f35b610a9160048036036020811015610a7b57600080fd5b81019080803590602001909291905050506119c3565b604051808215151515815260200191505060405180910390f35b610ad760048036036020811015610ac157600080fd5b8101908080359060200190929190505050611a15565b604051808781526020018681526020018581526020018481526020018381526020018273ffffffffffffffffffffffffffffffffffffffff1673ffffffffffffffffffffffffffffffffffffffff168152602001965050505050505060405180910390f35b610b7e60048036036020811015610b5257600080fd5b81019080803573ffffffffffffffffffffffffffffffffffffffff169060200190929190505050611a71565b604051808215151515815260200191505060405180910390f35b610bc460048036036020811015610bae57600080fd5b8101908080359060200190929190505050611b3b565b604051808273ffffffffffffffffffffffffffffffffffffffff1673ffffffffffffffffffffffffffffffffffffffff16815260200191505060405180910390f35b610c3260048036036020811015610c1c57600080fd5b8101908080359060200190929190505050611b79565b6040518084815260200180602001838152602001828103825284818151815260200191508051906020019080838360005b83811015610c7e578082015181840152602081019050610c63565b50505050905090810190601f168015610cab5780820380516001836020036101000a031916815260200191505b5094505050505060405180910390f35b610ce760048036036020811015610cd157600080fd5b8101908080359060200190929190505050611c3b565b604051808273ffffffffffffffffffffffffffffffffffffffff1673ffffffffffffffffffffffffffffffffffffffff16815260200191505060405180910390f35b610d5560048036036020811015610d3f57600080fd5b8101908080359060200190929190505050611c79565b6040518082815260200191505060405180910390f35b610d9760048036036020811015610d8157600080fd5b8101908080359060200190929190505050611c9c565b604051808215151515815260200191505060405180910390f35b610ddd60048036036020811015610dc757600080fd5b8101908080359060200190929190505050611cee565b604051808215151515815260200191505060405180910390f35b610e2360048036036020811015610e0d57600080fd5b8101908080359060200190929190505050611d40565b604051808273ffffffffffffffffffffffffffffffffffffffff1673ffffffffffffffffffffffffffffffffffffffff16815260200191505060405180910390f35b610ea760048036036020811015610e7b57600080fd5b81019080803573ffffffffffffffffffffffffffffffffffffffff169060200190929190505050611d7e565b6040518083815260200180602001828103825283818151815260200191508051906020019080838360005b83811015610eed578082015181840152602081019050610ed2565b50505050905090810190601f168015610f1a5780820380516001836020036101000a031916815260200191505b50935050505060405180910390f35b610f5560048036036020811015610f3f57600080fd5b8101908080359060200190929190505050611e3a565b6040518083815260200180602001828103825283818151815260200191508051906020019080838360005b83811015610f9b578082015181840152602081019050610f80565b50505050905090810190601f168015610fc85780820380516001836020036101000a031916815260200191505b50935050505060405180910390f35b61100360048036036020811015610fed57600080fd5b8101908080359060200190929190505050611ef6565b604051808215151515815260200191505060405180910390f35b6009602052806000526040600020600091509050806000015490806001018054600181600116156101000203166002900480601f0160208091040260200160405190810160405280929190818152602001828054600181600116156101000203166002900480156110cf5780601f106110a4576101008083540402835291602001916110cf565b820191906000526020600020905b8154815290600101906020018083116110b257829003601f168201915b505050505090806002018054600181600116156101000203166002900480601f01602080910402602001604051908101604052809291908181526020018280546001816001161561010002031660029004801561116d5780601f106111425761010080835404028352916020019161116d565b820191906000526020600020905b81548152906001019060200180831161115057829003601f168201915b5050505050908060030154905084565b60088181548110151561118c57fe5b906000526020600020016000915090505481565b6000806111ab611f48565b9050826007600083815260200190815260200160002060010190805190602001906111d7929190611ff1565b50836007600083815260200190815260200160002060020181905550600160088290806001815401808255809150509060018203906000526020600020016000909192909190915055036007600083815260200190815260200160002060000181905550600160046000868152602001908152602001600020600501829080600181540180825580915050906001820390600052602060002001600090919290919091505503600460008681526020019081526020016000206006016000838152602001908152602001600020819055508091505092915050565b6011602052806000526040600020600091509050806000015490806001018054600181600116156101000203166002900480601f0160208091040260200160405190810160405280929190818152602001828054600181600116156101000203166002900480156113645780601f1061133957610100808354040283529160200191611364565b820191906000526020600020905b81548152906001019060200180831161134757829003601f168201915b5050505050905082565b600080611379611f6a565b9050826001600083815260200190815260200160002060010190805190602001906113a5929190611ff1565b5060016002829080600181540180825580915050906001820390600052602060002001600090919290919091505503600160008381526020019081526020016000206000018190555080915050919050565b60108181548110151561140657fe5b906000526020600020016000915090505481565b600080611425611f8c565b905083600460008381526020019081526020016000206001019080519060200190611451929190611ff1565b50846004600083815260200190815260200160002060040181905550826004600083815260200190815260200160002060020181905550600160058290806001815401808255809150509060018203906000526020600020016000909192909190915055036004600083815260200190815260200160002060000181905550600180600087815260200190815260200160002060020182908060018154018082558091505090600182039060005260206000200160009091929091909150550360016000878152602001908152602001600020600301600083815260200190815260200160002081905550809150509392505050565b60028181548110151561155657fe5b906000526020600020016000915090505481565b600083600960008773ffffffffffffffffffffffffffffffffffffffff1673ffffffffffffffffffffffffffffffffffffffff1681526020019081526020016000206003018190555082600960008773ffffffffffffffffffffffffffffffffffffffff1673ffffffffffffffffffffffffffffffffffffffff1681526020019081526020016000206002019080519060200190611609929190611ff1565b5081600960008773ffffffffffffffffffffffffffffffffffffffff1673ffffffffffffffffffffffffffffffffffffffff1681526020019081526020016000206001019080519060200190611660929190611ff1565b506001600a8690806001815401808255809150509060018203906000526020600020016000909192909190916101000a81548173ffffffffffffffffffffffffffffffffffffffff021916908373ffffffffffffffffffffffffffffffffffffffff16021790555003600960008773ffffffffffffffffffffffffffffffffffffffff1673ffffffffffffffffffffffffffffffffffffffff1681526020019081526020016000206000018190555060018060008681526020019081526020016000206004018690806001815401808255809150509060018203906000526020600020016000909192909190916101000a81548173ffffffffffffffffffffffffffffffffffffffff021916908373ffffffffffffffffffffffffffffffffffffffff160217905550036001600086815260200190815260200160002060050160008773ffffffffffffffffffffffffffffffffffffffff1673ffffffffffffffffffffffffffffffffffffffff16815260200190815260200160002081905550849050949350505050565b6005818154811015156117fb57fe5b906000526020600020016000915090505481565b6004602052806000526040600020600091509050806000015490806001018054600181600116156101000203166002900480601f0160208091040260200160405190810160405280929190818152602001828054600181600116156101000203166002900480156118c15780601f10611896576101008083540402835291602001916118c1565b820191906000526020600020905b8154815290600101906020018083116118a457829003601f168201915b5050505050908060020154908060040154908060070154905085565b6000806118e8611fae565b905082600f60008381526020019081526020016000206001018190555060016010829080600181540180825580915050906001820390600052602060002001600090919290919091505503600f60008381526020019081526020016000206000018190555080600460008581526020019081526020016000206007018190555080915050919050565b600080601080549050141561198957600090506119be565b816010600f6000858152602001908152602001600020600001548154811015156119af57fe5b90600052602060002001541490505b919050565b60008060028054905014156119db5760009050611a10565b8160026001600085815260200190815260200160002060000154815481101515611a0157fe5b90600052602060002001541490505b919050565b600c6020528060005260406000206000915090508060000154908060010154908060020154908060030154908060040154908060050160009054906101000a900473ffffffffffffffffffffffffffffffffffffffff16905086565b600080600a805490501415611a895760009050611b36565b8173ffffffffffffffffffffffffffffffffffffffff16600a600960008573ffffffffffffffffffffffffffffffffffffffff1673ffffffffffffffffffffffffffffffffffffffff16815260200190815260200160002060000154815481101515611af157fe5b9060005260206000200160009054906101000a900473ffffffffffffffffffffffffffffffffffffffff1673ffffffffffffffffffffffffffffffffffffffff161490505b919050565b601281815481101515611b4a57fe5b906000526020600020016000915054906101000a900473ffffffffffffffffffffffffffffffffffffffff1681565b6007602052806000526040600020600091509050806000015490806001018054600181600116156101000203166002900480601f016020809104026020016040519081016040528092919081815260200182805460018160011615610100020316600290048015611c2b5780601f10611c0057610100808354040283529160200191611c2b565b820191906000526020600020905b815481529060010190602001808311611c0e57829003601f168201915b5050505050908060020154905083565b600a81815481101515611c4a57fe5b906000526020600020016000915054906101000a900473ffffffffffffffffffffffffffffffffffffffff1681565b600d81815481101515611c8857fe5b906000526020600020016000915090505481565b6000806005805490501415611cb45760009050611ce9565b8160056004600085815260200190815260200160002060000154815481101515611cda57fe5b90600052602060002001541490505b919050565b600080600d805490501415611d065760009050611d3b565b81600d600c600085815260200190815260200160002060000154815481101515611d2c57fe5b90600052602060002001541490505b919050565b601481815481101515611d4f57fe5b906000526020600020016000915054906101000a900473ffffffffffffffffffffffffffffffffffffffff1681565b6013602052806000526040600020600091509050806000015490806001018054600181600116156101000203166002900480601f016020809104026020016040519081016040528092919081815260200182805460018160011615610100020316600290048015611e305780601f10611e0557610100808354040283529160200191611e30565b820191906000526020600020905b815481529060010190602001808311611e1357829003601f168201915b5050505050905082565b6001602052806000526040600020600091509050806000015490806001018054600181600116156101000203166002900480601f016020809104026020016040519081016040528092919081815260200182805460018160011615610100020316600290048015611eec5780601f10611ec157610100808354040283529160200191611eec565b820191906000526020600020905b815481529060010190602001808311611ecf57829003601f168201915b5050505050905082565b6000806008805490501415611f0e5760009050611f43565b8160086007600085815260200190815260200160002060000154815481101515611f3457fe5b90600052602060002001541490505b919050565b6000611f606001600654611fd090919063ffffffff16565b6006819055905090565b6000611f826001600054611fd090919063ffffffff16565b6000819055905090565b6000611fa46001600354611fd090919063ffffffff16565b6003819055905090565b6000611fc66001600e54611fd090919063ffffffff16565b600e819055905090565b6000808284019050838110151515611fe757600080fd5b8091505092915050565b828054600181600116156101000203166002900490600052602060002090601f016020900481019282601f1061203257805160ff1916838001178555612060565b82800160010185558215612060579182015b8281111561205f578251825591602001919060010190612044565b5b50905061206d9190612071565b5090565b61209391905b8082111561208f576000816000905550600101612077565b5090565b9056fea165627a7a72305820ce7f998c8a1ab21eca02b0d7ae7de09bce15857713863a8edfa8a7b7139b7a210029",
  "source": "pragma solidity ^0.5.0;\r\n\r\nimport \"../node_modules/openzeppelin-solidity/contracts/math/SafeMath.sol\";\r\n\r\ncontract Votechain {\r\n    using SafeMath for uint256;\r\n\r\n    uint256 private electionKeyCounter = 0; // will also serve as the election's key\r\n    mapping(uint256 => Election) public electionList; // election id to election list\r\n    uint256[] public electionKeyList;\r\n    \r\n    uint256 private positionKeyCounter = 0;\r\n    mapping(uint256 => Position) public positionList;\r\n    uint256[] public positionKeyList;\r\n\r\n    uint256 private candidateKeyCounter = 0;\r\n    mapping(uint256 => Candidate) public candidateList;\r\n    uint256[] public candidateKeyList;\r\n\r\n    mapping(address => Voter) public voterList;\r\n    address[] public voterKeyList;\r\n\r\n    uint256 private voteKeyCounter = 0;\r\n    mapping(uint256 => Vote) public voteList;\r\n    uint256[] public voteKeyList;\r\n\r\n    uint256 private abstainKeyCounter = 0;\r\n    mapping(uint256 => Abstain) abstainList;\r\n    uint256[] public abstainKeyList;\r\n\r\n    mapping(address => Admin) public adminList;\r\n    address[] public adminKeyList;\r\n    \r\n    mapping(address => Official) public officialList;\r\n    address[] public officialKeyList;\r\n\r\n    struct Admin {\r\n        uint256 keyIndex;\r\n        string name;\r\n    }\r\n\r\n    struct Official {\r\n        uint256 keyIndex;\r\n        string name;\r\n    }\r\n\r\n    struct Election {\r\n        uint256 keyIndex;\r\n        string name;\r\n\r\n        uint256[] positionKeyList;\r\n        mapping(uint256 => uint256) positionKeyIndexList; // position key to index in positionKeyList\r\n\r\n        address[] voterKeyList;\r\n        mapping(address => uint256) voterKeyIndexList; // voter kye to index in voterKeyList;\r\n    }\r\n\r\n    struct Position {\r\n        uint256 keyIndex;\r\n        string name;\r\n        \r\n        uint256 maxNoOfCandidatesThatCanBeSelected; // the total number of candidates a voter can vote simultaneously in this position.\r\n        mapping(address => uint256) noOfVotesSubmittedBy; // voter id to no of votes that has been casted by this voter in this position.\r\n\r\n        uint256 electionKey;\r\n\r\n        uint256[] candidateKeyList;\r\n        mapping(uint256 => uint256) candidateKeyIndexList; // candidate key to index in candidateKeyList\r\n\r\n        uint256 abstainKey;\r\n    }\r\n\r\n    struct Candidate {\r\n        uint256 keyIndex;\r\n        string name;\r\n\r\n        uint256 positionKey;\r\n\r\n        address[] voterKeyList; // voters who vote for this candidate\r\n        mapping(address => uint256) voterKeyIndexList; // voter key to index in voterKeyIndexList\r\n    }\r\n\r\n    struct Voter {\r\n        uint256 keyIndex;\r\n        string name;\r\n        string studentNo;\r\n\r\n        uint256 electionKey;\r\n\r\n        Vote[] voteKeyList;\r\n        mapping(uint256 => uint256) voteKeyIndexList; // vote key to index in voteKeyList\r\n    }\r\n\r\n    struct Vote {\r\n        uint256 keyIndex;\r\n        uint256 electionKey;\r\n        uint256 positionKey;\r\n        uint256 candidateKey;\r\n        uint256 voteKey;\r\n        address voterKey;\r\n    }\r\n\r\n    struct Abstain {\r\n        uint256 keyIndex;\r\n        uint256 positionKey;\r\n\r\n        address[] voterKeyList; // voters who voted for this particular abstain\r\n        mapping(address => uint256) voterKeyIndexList; // voter key to index in the voterKeyList\r\n    }\r\n\r\n\r\n    function addElection(string memory name) public returns(uint256) {\r\n        uint256 newKey = genElectionKey();\r\n        electionList[newKey].name = name;\r\n        electionList[newKey].keyIndex = electionKeyList.push(newKey) - 1;\r\n        \r\n        return newKey;\r\n    }\r\n\r\n    function addPosition(uint256 electionKey, string memory name, uint256 maxNoOfCandidatesThatCanBeSelected) public returns(uint256) {\r\n        uint256 positionKey = genPositionKey();\r\n        positionList[positionKey].name = name;\r\n        positionList[positionKey].electionKey = electionKey;\r\n        positionList[positionKey].maxNoOfCandidatesThatCanBeSelected = maxNoOfCandidatesThatCanBeSelected;\r\n        positionList[positionKey].keyIndex = positionKeyList.push(positionKey) - 1;\r\n\r\n        electionList[electionKey].positionKeyIndexList[positionKey] = electionList[electionKey].positionKeyList.push(positionKey) - 1;\r\n\r\n        return positionKey;\r\n    }\r\n\r\n    function addCandidate(uint256 positionKey, string memory name) public returns(uint256) {\r\n        uint256 candidateKey = genCandidateKey();\r\n        candidateList[candidateKey].name = name;\r\n        candidateList[candidateKey].positionKey = positionKey;\r\n        candidateList[candidateKey].keyIndex = candidateKeyList.push(candidateKey) - 1;\r\n\r\n        positionList[positionKey].candidateKeyIndexList[candidateKey] = positionList[positionKey].candidateKeyList.push(candidateKey) - 1;\r\n        return candidateKey;\r\n    }\r\n\r\n    function addVoter(address voterKey, uint256 electionKey, string memory studentNo, string memory name) public returns(address){\r\n        voterList[voterKey].electionKey = electionKey;\r\n        voterList[voterKey].studentNo = studentNo;\r\n        voterList[voterKey].name = name;\r\n        voterList[voterKey].keyIndex = voterKeyList.push(voterKey) - 1;\r\n\r\n        electionList[electionKey].voterKeyIndexList[voterKey] = electionList[electionKey].voterKeyList.push(voterKey) - 1;\r\n        return voterKey;\r\n    }\r\n\r\n    function addAbstain(uint256 positionKey) public returns(uint256) {\r\n        uint256 abstainKey = genAbstainKey();\r\n        abstainList[abstainKey].positionKey = positionKey;\r\n        abstainList[abstainKey].keyIndex = abstainKeyList.push(abstainKey) - 1;\r\n        \r\n        positionList[positionKey].abstainKey = abstainKey;\r\n\r\n        return abstainKey;\r\n    }\r\n\r\n    \r\n\r\n\r\n\r\n    function isElection(uint256 electionKey) public view returns(bool) {\r\n        if(electionKeyList.length == 0) return false;\r\n        return electionKeyList[electionList[electionKey].keyIndex] == electionKey;\r\n    }\r\n\r\n    function isPosition(uint256 positionKey) public view returns(bool) {\r\n        if(positionKeyList.length == 0) return false;\r\n        return positionKeyList[positionList[positionKey].keyIndex] == positionKey;\r\n    }\r\n\r\n    function isCandidate(uint256 candidateKey) public view returns(bool) {\r\n        if(candidateKeyList.length == 0) return false;\r\n        return candidateKeyList[candidateList[candidateKey].keyIndex] == candidateKey;\r\n    }\r\n\r\n    function isVoter(address voterKey) public view returns(bool) {\r\n        if(voterKeyList.length == 0) return false;\r\n        return voterKeyList[voterList[voterKey].keyIndex] == voterKey;\r\n    }\r\n\r\n    function isVote(uint256 voteKey) public view returns(bool) {\r\n        if(voteKeyList.length == 0) return false;\r\n        return voteKeyList[voteList[voteKey].keyIndex] == voteKey;\r\n    }\r\n\r\n    function isAbstain(uint256 abstainKey) public view returns(bool) {\r\n        if(abstainKeyList.length == 0) return false;\r\n        return abstainKeyList[abstainList[abstainKey].keyIndex] == abstainKey;\r\n    }\r\n\r\n    function genElectionKey() private returns(uint256) {\r\n        return electionKeyCounter = electionKeyCounter.add(1);\r\n    }\r\n\r\n    function genPositionKey() private returns(uint256) {\r\n        return positionKeyCounter = positionKeyCounter.add(1);\r\n    }\r\n\r\n    function genCandidateKey() private returns(uint256) {\r\n        return candidateKeyCounter = candidateKeyCounter.add(1);\r\n    }\r\n\r\n    function genVoteKey() private returns(uint256) {\r\n        return voteKeyCounter = voteKeyCounter.add(1);\r\n    }\r\n\r\n    function genAbstainKey() private returns(uint256) {\r\n        return abstainKeyCounter = abstainKeyCounter.add(1);\r\n    }\r\n\r\n    \r\n}\r\n",
  "sourcePath": "E:/ethereum/votechain/contracts/Votechain.sol",
  "compiler": {
    "name": "solc",
    "version": "0.5.3+commit.10d17f24.Emscripten.clang"
  },
  "schemaVersion": "3.0.1",
  "updatedAt": "2019-02-10T04:49:32.668Z",
  "devdoc": {
    "methods": {}
  },
  "userdoc": {
    "methods": {}
  }
}